{
  "address": "0x49C0b2be8D56B33cb50550Ba490dabaC537775A8",
  "abi": [
    {
      "inputs": [
        {
          "internalType": "string",
          "name": "name",
          "type": "string"
        },
        {
          "internalType": "string",
          "name": "symbol",
          "type": "string"
        },
        {
          "internalType": "uint8",
          "name": "decimals",
          "type": "uint8"
        },
        {
          "internalType": "string",
          "name": "version",
          "type": "string"
        },
        {
          "internalType": "address",
          "name": "holder",
          "type": "address"
        },
        {
          "internalType": "uint256",
          "name": "totalSupply",
          "type": "uint256"
        }
      ],
      "stateMutability": "nonpayable",
      "type": "constructor"
    },
    {
      "anonymous": false,
      "inputs": [
        {
          "indexed": true,
          "internalType": "address",
          "name": "_owner",
          "type": "address"
        },
        {
          "indexed": true,
          "internalType": "address",
          "name": "_spender",
          "type": "address"
        },
        {
          "indexed": false,
          "internalType": "uint256",
          "name": "_value",
          "type": "uint256"
        }
      ],
      "name": "Approval",
      "type": "event"
    },
    {
      "anonymous": false,
      "inputs": [
        {
          "indexed": true,
          "internalType": "address",
          "name": "_from",
          "type": "address"
        },
        {
          "indexed": true,
          "internalType": "address",
          "name": "_to",
          "type": "address"
        },
        {
          "indexed": false,
          "internalType": "uint256",
          "name": "_value",
          "type": "uint256"
        }
      ],
      "name": "Transfer",
      "type": "event"
    },
    {
      "inputs": [],
      "name": "DOMAIN_SEPARATOR",
      "outputs": [
        {
          "internalType": "bytes32",
          "name": "",
          "type": "bytes32"
        }
      ],
      "stateMutability": "view",
      "type": "function"
    },
    {
      "inputs": [
        {
          "internalType": "address",
          "name": "owner",
          "type": "address"
        },
        {
          "internalType": "address",
          "name": "spender",
          "type": "address"
        }
      ],
      "name": "allowance",
      "outputs": [
        {
          "internalType": "uint256",
          "name": "",
          "type": "uint256"
        }
      ],
      "stateMutability": "view",
      "type": "function"
    },
    {
      "inputs": [
        {
          "internalType": "address",
          "name": "spender",
          "type": "address"
        },
        {
          "internalType": "uint256",
          "name": "value",
          "type": "uint256"
        }
      ],
      "name": "approve",
      "outputs": [
        {
          "internalType": "bool",
          "name": "",
          "type": "bool"
        }
      ],
      "stateMutability": "nonpayable",
      "type": "function"
    },
    {
      "inputs": [
        {
          "internalType": "address",
          "name": "account",
          "type": "address"
        }
      ],
      "name": "balanceOf",
      "outputs": [
        {
          "internalType": "uint256",
          "name": "",
          "type": "uint256"
        }
      ],
      "stateMutability": "view",
      "type": "function"
    },
    {
      "inputs": [
        {
          "internalType": "uint256",
          "name": "amount",
          "type": "uint256"
        }
      ],
      "name": "burn",
      "outputs": [
        {
          "internalType": "bool",
          "name": "",
          "type": "bool"
        }
      ],
      "stateMutability": "nonpayable",
      "type": "function"
    },
    {
      "inputs": [
        {
          "internalType": "address",
          "name": "from",
          "type": "address"
        },
        {
          "internalType": "uint256",
          "name": "value",
          "type": "uint256"
        }
      ],
      "name": "burnFrom",
      "outputs": [
        {
          "internalType": "bool",
          "name": "",
          "type": "bool"
        }
      ],
      "stateMutability": "nonpayable",
      "type": "function"
    },
    {
      "inputs": [],
      "name": "decimals",
      "outputs": [
        {
          "internalType": "uint8",
          "name": "",
          "type": "uint8"
        }
      ],
      "stateMutability": "view",
      "type": "function"
    },
    {
      "inputs": [
        {
          "internalType": "address",
          "name": "spender",
          "type": "address"
        },
        {
          "internalType": "uint256",
          "name": "subtractedValue",
          "type": "uint256"
        }
      ],
      "name": "decreaseAllowance",
      "outputs": [
        {
          "internalType": "bool",
          "name": "",
          "type": "bool"
        }
      ],
      "stateMutability": "nonpayable",
      "type": "function"
    },
    {
      "inputs": [
        {
          "internalType": "address",
          "name": "spender",
          "type": "address"
        },
        {
          "internalType": "uint256",
          "name": "addedValue",
          "type": "uint256"
        }
      ],
      "name": "increaseAllowance",
      "outputs": [
        {
          "internalType": "bool",
          "name": "",
          "type": "bool"
        }
      ],
      "stateMutability": "nonpayable",
      "type": "function"
    },
    {
      "inputs": [
        {
          "internalType": "address[]",
          "name": "recipients",
          "type": "address[]"
        },
        {
          "internalType": "uint256[]",
          "name": "amounts",
          "type": "uint256[]"
        }
      ],
      "name": "multiTransfer",
      "outputs": [
        {
          "internalType": "bool",
          "name": "",
          "type": "bool"
        }
      ],
      "stateMutability": "nonpayable",
      "type": "function"
    },
    {
      "inputs": [
        {
          "internalType": "address",
          "name": "from",
          "type": "address"
        },
        {
          "internalType": "address[]",
          "name": "recipients",
          "type": "address[]"
        },
        {
          "internalType": "uint256[]",
          "name": "values",
          "type": "uint256[]"
        }
      ],
      "name": "multiTransferFrom",
      "outputs": [
        {
          "internalType": "bool",
          "name": "",
          "type": "bool"
        }
      ],
      "stateMutability": "nonpayable",
      "type": "function"
    },
    {
      "inputs": [],
      "name": "name",
      "outputs": [
        {
          "internalType": "string",
          "name": "",
          "type": "string"
        }
      ],
      "stateMutability": "view",
      "type": "function"
    },
    {
      "inputs": [
        {
          "internalType": "address",
          "name": "",
          "type": "address"
        }
      ],
      "name": "nonces",
      "outputs": [
        {
          "internalType": "uint256",
          "name": "",
          "type": "uint256"
        }
      ],
      "stateMutability": "view",
      "type": "function"
    },
    {
      "inputs": [
        {
          "internalType": "address",
          "name": "owner",
          "type": "address"
        },
        {
          "internalType": "address",
          "name": "spender",
          "type": "address"
        },
        {
          "internalType": "uint256",
          "name": "value",
          "type": "uint256"
        },
        {
          "internalType": "uint256",
          "name": "deadline",
          "type": "uint256"
        },
        {
          "internalType": "uint8",
          "name": "v",
          "type": "uint8"
        },
        {
          "internalType": "bytes32",
          "name": "r",
          "type": "bytes32"
        },
        {
          "internalType": "bytes32",
          "name": "s",
          "type": "bytes32"
        }
      ],
      "name": "permit",
      "outputs": [],
      "stateMutability": "nonpayable",
      "type": "function"
    },
    {
      "inputs": [
        {
          "internalType": "address",
          "name": "to",
          "type": "address"
        },
        {
          "internalType": "uint256",
          "name": "amount",
          "type": "uint256"
        },
        {
          "internalType": "bytes",
          "name": "data",
          "type": "bytes"
        }
      ],
      "name": "safeTransfer",
      "outputs": [
        {
          "internalType": "bool",
          "name": "",
          "type": "bool"
        }
      ],
      "stateMutability": "nonpayable",
      "type": "function"
    },
    {
      "inputs": [
        {
          "internalType": "address",
          "name": "from",
          "type": "address"
        },
        {
          "internalType": "address",
          "name": "to",
          "type": "address"
        },
        {
          "internalType": "uint256",
          "name": "amount",
          "type": "uint256"
        },
        {
          "internalType": "bytes",
          "name": "data",
          "type": "bytes"
        }
      ],
      "name": "safeTransferFrom",
      "outputs": [
        {
          "internalType": "bool",
          "name": "",
          "type": "bool"
        }
      ],
      "stateMutability": "nonpayable",
      "type": "function"
    },
    {
      "inputs": [
        {
          "internalType": "bytes4",
          "name": "interfaceId",
          "type": "bytes4"
        }
      ],
      "name": "supportsInterface",
      "outputs": [
        {
          "internalType": "bool",
          "name": "",
          "type": "bool"
        }
      ],
      "stateMutability": "view",
      "type": "function"
    },
    {
      "inputs": [],
      "name": "symbol",
      "outputs": [
        {
          "internalType": "string",
          "name": "",
          "type": "string"
        }
      ],
      "stateMutability": "view",
      "type": "function"
    },
    {
      "inputs": [],
      "name": "totalSupply",
      "outputs": [
        {
          "internalType": "uint256",
          "name": "",
          "type": "uint256"
        }
      ],
      "stateMutability": "view",
      "type": "function"
    },
    {
      "inputs": [
        {
          "internalType": "address",
          "name": "to",
          "type": "address"
        },
        {
          "internalType": "uint256",
          "name": "value",
          "type": "uint256"
        }
      ],
      "name": "transfer",
      "outputs": [
        {
          "internalType": "bool",
          "name": "",
          "type": "bool"
        }
      ],
      "stateMutability": "nonpayable",
      "type": "function"
    },
    {
      "inputs": [
        {
          "internalType": "address",
          "name": "from",
          "type": "address"
        },
        {
          "internalType": "address",
          "name": "to",
          "type": "address"
        },
        {
          "internalType": "uint256",
          "name": "value",
          "type": "uint256"
        }
      ],
      "name": "transferFrom",
      "outputs": [
        {
          "internalType": "bool",
          "name": "",
          "type": "bool"
        }
      ],
      "stateMutability": "nonpayable",
      "type": "function"
    }
  ],
  "transactionHash": "0xbdcf27afbc20862f00c84c8296d0e1913887f391979e5d947054fe43ab7ed5bf",
  "args": [
    "Bronze TOWER Chest",
    "TWR.BRNZ",
    18,
    "1",
    "0xB553C4B21966123d7f8c02Ca6909c110260052E8",
    "3500000000000000000000"
  ],
  "solcInputHash": "7d3abb3836f79bd0ebc07a4c0e3fb29a",
  "bytecode": "0x60c06040523480156200001157600080fd5b5060405162001e6738038062001e67833981810160405260c08110156200003757600080fd5b81019080805160405193929190846401000000008211156200005857600080fd5b9083019060208201858111156200006e57600080fd5b82516401000000008111828201881017156200008957600080fd5b82525081516020918201929091019080838360005b83811015620000b85781810151838201526020016200009e565b50505050905090810190601f168015620000e65780820380516001836020036101000a031916815260200191505b50604052602001805160405193929190846401000000008211156200010a57600080fd5b9083019060208201858111156200012057600080fd5b82516401000000008111828201881017156200013b57600080fd5b82525081516020918201929091019080838360005b838110156200016a57818101518382015260200162000150565b50505050905090810190601f168015620001985780820380516001836020036101000a031916815260200191505b50604081815260208301519201805192949193919284640100000000821115620001c157600080fd5b908301906020820185811115620001d757600080fd5b8251640100000000811182820188101715620001f257600080fd5b82525081516020918201929091019080838360005b838110156200022157818101518382015260200162000207565b50505050905090810190601f1680156200024f5780820380516001836020036101000a031916815260200191505b5060409081526020828101519290910151885192945092508791879187918791859185918591859162000288916001918701906200048e565b5082516200029e9060029060208601906200048e565b507fff0000000000000000000000000000000000000000000000000000000000000060f883901b1660a052604051469080605262001e1582396052019050604051809103902085805190602001208380519060200120833060405160200180868152602001858152602001848152602001838152602001826001600160a01b03166001600160a01b031681526020019550505050505060405160208183030381529060405280519060200120608081815250505050505050505050506200036c82826200037860201b60201c565b50505050505062000533565b6001600160a01b038216620003d4576040805162461bcd60e51b815260206004820152601360248201527f45524332303a207a65726f206164647265737300000000000000000000000000604482015290519081900360640190fd5b6005548181018181101562000430576040805162461bcd60e51b815260206004820152601660248201527f45524332303a20737570706c79206f766572666c6f7700000000000000000000604482015290519081900360640190fd5b60058190556001600160a01b0384166000818152600360209081526040808320805488019055805187815290517fddf252ad1be2c89b69c2b068fc378daa952ba7f163c4a11628f55a4df523b3ef929181900390910190a350505050565b828054600181600116156101000203166002900490600052602060002090601f016020900481019282601f10620004d157805160ff191683800117855562000501565b8280016001018555821562000501579182015b8281111562000501578251825591602001919060010190620004e4565b506200050f92915062000513565b5090565b6200053091905b808211156200050f57600081556001016200051a565b90565b60805160a05160f81c6118b66200055f600039806108f952508061091d5280610f8852506118b66000f3fe608060405234801561001057600080fd5b50600436106101775760003560e01c806370a08231116100d8578063a9059cbb1161008c578063d505accf11610066578063d505accf1461061b578063dd62ed3e1461066e578063eb7955491461069c57610177565b8063a9059cbb1461048d578063b88d4fde146104b9578063cb31b6cd1461054957610177565b80637ecebe00116100bd5780637ecebe001461043357806395d89b4114610459578063a457c2d71461046157610177565b806370a08231146103e157806379cc67901461040757610177565b806323b872dd1161012f5780633644e515116101145780633644e51514610390578063395093511461039857806342966c68146103c457610177565b806323b872dd1461033c578063313ce5671461037257610177565b8063095ea7b311610160578063095ea7b31461023457806318160ddd146102605780631e89d5451461027a57610177565b806301ffc9a71461017c57806306fdde03146101b7575b600080fd5b6101a36004803603602081101561019257600080fd5b50356001600160e01b031916610721565b604080519115158252519081900360200190f35b6101bf610765565b6040805160208082528351818301528351919283929083019185019080838360005b838110156101f95781810151838201526020016101e1565b50505050905090810190601f1680156102265780820380516001836020036101000a031916815260200191505b509250505060405180910390f35b6101a36004803603604081101561024a57600080fd5b506001600160a01b0381351690602001356107fa565b610268610817565b60408051918252519081900360200190f35b6101a36004803603604081101561029057600080fd5b8101906020810181356401000000008111156102ab57600080fd5b8201836020820111156102bd57600080fd5b803590602001918460208302840111640100000000831117156102df57600080fd5b9193909290916020810190356401000000008111156102fd57600080fd5b82018360208201111561030f57600080fd5b8035906020019184602083028401116401000000008311171561033157600080fd5b50909250905061081d565b6101a36004803603606081101561035257600080fd5b506001600160a01b038135811691602081013590911690604001356108d8565b61037a6108f7565b6040805160ff9092168252519081900360200190f35b61026861091b565b6101a3600480360360408110156103ae57600080fd5b506001600160a01b03813516906020013561093f565b6101a3600480360360208110156103da57600080fd5b5035610a90565b610268600480360360208110156103f757600080fd5b50356001600160a01b0316610aab565b6101a36004803603604081101561041d57600080fd5b506001600160a01b038135169060200135610ac6565b6102686004803603602081101561044957600080fd5b50356001600160a01b0316610b01565b6101bf610b13565b6101a36004803603604081101561047757600080fd5b506001600160a01b038135169060200135610b71565b6101a3600480360360408110156104a357600080fd5b506001600160a01b038135169060200135610be0565b6101a3600480360360808110156104cf57600080fd5b6001600160a01b0382358116926020810135909116916040820135919081019060808101606082013564010000000081111561050a57600080fd5b82018360208201111561051c57600080fd5b8035906020019184600183028401116401000000008311171561053e57600080fd5b509092509050610bf4565b6101a36004803603606081101561055f57600080fd5b6001600160a01b03823516919081019060408101602082013564010000000081111561058a57600080fd5b82018360208201111561059c57600080fd5b803590602001918460208302840111640100000000831117156105be57600080fd5b9193909290916020810190356401000000008111156105dc57600080fd5b8201836020820111156105ee57600080fd5b8035906020019184602083028401116401000000008311171561061057600080fd5b509092509050610d6b565b61066c600480360360e081101561063157600080fd5b506001600160a01b03813581169160208101359091169060408101359060608101359060ff6080820135169060a08101359060c00135610e28565b005b6102686004803603604081101561068457600080fd5b506001600160a01b03813581169160200135166110ca565b6101a3600480360360608110156106b257600080fd5b6001600160a01b03823516916020810135918101906060810160408201356401000000008111156106e257600080fd5b8201836020820111156106f457600080fd5b8035906020019184600183028401116401000000008311171561071657600080fd5b5090925090506110f5565b60006001600160e01b031982167f3b5a0bf800000000000000000000000000000000000000000000000000000000148061075f575061075f8261126a565b92915050565b60018054604080516020601f600260001961010087891615020190951694909404938401819004810282018101909252828152606093909290918301828280156107f05780601f106107c5576101008083540402835291602001916107f0565b820191906000526020600020905b8154815290600101906020018083116107d357829003601f168201915b5050505050905090565b600061080e61080761146f565b8484611473565b50600192915050565b60055490565b600083828114610874576040805162461bcd60e51b815260206004820152601a60248201527f45524332303a20696e636f6e73697374656e7420617272617973000000000000604482015290519081900360640190fd5b600061087e61146f565b905060005b8281146108ca576108c28289898481811061089a57fe5b905060200201356001600160a01b03168888858181106108b657fe5b90506020020135611530565b600101610883565b506001979650505050505050565b60006108ed6108e561146f565b858585611664565b5060019392505050565b7f000000000000000000000000000000000000000000000000000000000000000090565b7f000000000000000000000000000000000000000000000000000000000000000081565b60006001600160a01b03831661099c576040805162461bcd60e51b815260206004820152601360248201527f45524332303a207a65726f206164647265737300000000000000000000000000604482015290519081900360640190fd5b60006109a661146f565b6001600160a01b0380821660009081526004602090815260408083209389168352929052205490915083810181811015610a27576040805162461bcd60e51b815260206004820152601960248201527f45524332303a20616c6c6f77616e6365206f766572666c6f7700000000000000604482015290519081900360640190fd5b6001600160a01b038084166000818152600460209081526040808320948b1680845294825291829020859055815185815291517f8c5be1e5ebec7d5bd14f71427d1e84f3dd0314c0f7b2291e5b200ac8c7c3b9259281900390910190a350600195945050505050565b6000610aa3610a9d61146f565b83611699565b506001919050565b6001600160a01b031660009081526003602052604090205490565b600080610ad161146f565b9050836001600160a01b0316816001600160a01b031614610af757610af784828561176a565b6108ed8484611699565b60006020819052908152604090205481565b60028054604080516020601f60001961010060018716150201909416859004938401819004810282018101909252828152606093909290918301828280156107f05780601f106107c5576101008083540402835291602001916107f0565b60006001600160a01b038316610bce576040805162461bcd60e51b815260206004820152601360248201527f45524332303a207a65726f206164647265737300000000000000000000000000604482015290519081900360640190fd5b61080e610bd961146f565b848461176a565b600061080e610bed61146f565b8484611530565b600080610bff61146f565b9050610c0d81888888611664565b610c1f866001600160a01b031661187a565b15610d5e576040517f4fc35859000000000000000000000000000000000000000000000000000000008082526001600160a01b03838116600484019081528a8216602485015260448401899052608060648501908152608485018890529293918a1692634fc358599286928d928c928c928c92909160a401848480828437600081840152601f19601f8201169050808301925050509650505050505050602060405180830381600087803b158015610cd657600080fd5b505af1158015610cea573d6000803e3d6000fd5b505050506040513d6020811015610d0057600080fd5b50516001600160e01b03191614610d5e576040805162461bcd60e51b815260206004820152601760248201527f45524332303a207472616e736665722072656675736564000000000000000000604482015290519081900360640190fd5b5060019695505050505050565b600083828114610dc2576040805162461bcd60e51b815260206004820152601a60248201527f45524332303a20696e636f6e73697374656e7420617272617973000000000000604482015290519081900360640190fd5b6000610dcc61146f565b905060005b828114610e1957610e11828a8a8a85818110610de957fe5b905060200201356001600160a01b0316898986818110610e0557fe5b90506020020135611664565b600101610dd1565b50600198975050505050505050565b6001600160a01b038716610e83576040805162461bcd60e51b815260206004820152601960248201527f45524332303a207a65726f2061646472657373206f776e657200000000000000604482015290519081900360640190fd5b83421115610ed8576040805162461bcd60e51b815260206004820152601560248201527f45524332303a2065787069726564207065726d69740000000000000000000000604482015290519081900360640190fd5b6001600160a01b038088166000818152602081815260408083208054600180820190925582517f6e71edae12b1b97f4d1f60370fef10105fa2faae0126114a169c64845d6126c98186015280840196909652958c166060860152608085018b905260a085019590955260c08085018a90528151808603909101815260e0850182528051908301207f19010000000000000000000000000000000000000000000000000000000000006101008601527f000000000000000000000000000000000000000000000000000000000000000061010286015261012280860182905282518087039091018152610142860180845281519185019190912090859052610162860180845281905260ff8a166101828701526101a286018990526101c2860188905291519095919491926101e2808401939192601f1981019281900390910190855afa15801561102c573d6000803e3d6000fd5b5050604051601f1901519150506001600160a01b038116158015906110625750896001600160a01b0316816001600160a01b0316145b6110b3576040805162461bcd60e51b815260206004820152601560248201527f45524332303a20696e76616c6964207065726d69740000000000000000000000604482015290519081900360640190fd5b6110be8a8a8a611473565b50505050505050505050565b6001600160a01b03918216600090815260046020908152604080832093909416825291909152205490565b60008061110061146f565b905061110d818787611530565b61111f866001600160a01b031661187a565b1561125e576040517f4fc35859000000000000000000000000000000000000000000000000000000008082526001600160a01b0383811660048401818152602485019190915260448401899052608060648501908152608485018890529293918a1692634fc3585992869283928c928c928c92909160a401848480828437600081840152601f19601f8201169050808301925050509650505050505050602060405180830381600087803b1580156111d657600080fd5b505af11580156111ea573d6000803e3d6000fd5b505050506040513d602081101561120057600080fd5b50516001600160e01b0319161461125e576040805162461bcd60e51b815260206004820152601760248201527f45524332303a207472616e736665722072656675736564000000000000000000604482015290519081900360640190fd5b50600195945050505050565b60006001600160e01b031982167f01ffc9a70000000000000000000000000000000000000000000000000000000014806112cd57506001600160e01b031982167f36372b0700000000000000000000000000000000000000000000000000000000145b8061130157506001600160e01b031982167fa219a02500000000000000000000000000000000000000000000000000000000145b8061133557507f06fdde03000000000000000000000000000000000000000000000000000000006001600160e01b03198316145b8061136957507f95d89b41000000000000000000000000000000000000000000000000000000006001600160e01b03198316145b8061139d57507f313ce567000000000000000000000000000000000000000000000000000000006001600160e01b03198316145b806113d157506001600160e01b031982167f9d07518600000000000000000000000000000000000000000000000000000000145b8061140557506001600160e01b031982167fd5b8638800000000000000000000000000000000000000000000000000000000145b8061143957506001600160e01b031982167f53f41a9700000000000000000000000000000000000000000000000000000000145b8061075f5750506001600160e01b0319167f9d8ff7da000000000000000000000000000000000000000000000000000000001490565b3390565b6001600160a01b0382166114ce576040805162461bcd60e51b815260206004820152601360248201527f45524332303a207a65726f206164647265737300000000000000000000000000604482015290519081900360640190fd5b6001600160a01b03808416600081815260046020908152604080832094871680845294825291829020859055815185815291517f8c5be1e5ebec7d5bd14f71427d1e84f3dd0314c0f7b2291e5b200ac8c7c3b9259281900390910190a3505050565b6001600160a01b03821661158b576040805162461bcd60e51b815260206004820152601360248201527f45524332303a207a65726f206164647265737300000000000000000000000000604482015290519081900360640190fd5b6001600160a01b038316600090815260036020526040902054818110156115f9576040805162461bcd60e51b815260206004820152601b60248201527f45524332303a20696e73756666696369656e742062616c616e63650000000000604482015290519081900360640190fd5b6001600160a01b0380851660008181526003602090815260408083208787039055938716808352918490208054870190558351868152935191937fddf252ad1be2c89b69c2b068fc378daa952ba7f163c4a11628f55a4df523b3ef929081900390910190a350505050565b826001600160a01b0316846001600160a01b0316146116885761168883858361176a565b611693838383611530565b50505050565b6001600160a01b03821660009081526003602052604090205481811015611707576040805162461bcd60e51b815260206004820152601b60248201527f45524332303a20696e73756666696369656e742062616c616e63650000000000604482015290519081900360640190fd5b6001600160a01b03831660008181526003602090815260408083208686039055600580548790039055805186815290519293927fddf252ad1be2c89b69c2b068fc378daa952ba7f163c4a11628f55a4df523b3ef929181900390910190a3505050565b6001600160a01b0380841660009081526004602090815260408083209386168352929052205460001981148015906117a157508115155b1561182957818103818111156117fe576040805162461bcd60e51b815260206004820152601d60248201527f45524332303a20696e73756666696369656e7420616c6c6f77616e6365000000604482015290519081900360640190fd5b6001600160a01b03808616600090815260046020908152604080832093881683529290522081905590505b826001600160a01b0316846001600160a01b03167f8c5be1e5ebec7d5bd14f71427d1e84f3dd0314c0f7b2291e5b200ac8c7c3b925836040518082815260200191505060405180910390a350505050565b3b15159056fea26469706673582212203909fc1cad7daae69910a6623a550205b24c56ce345c8dd09e85fb9bb3aa598d64736f6c63430006080033454950373132446f6d61696e28737472696e67206e616d652c737472696e672076657273696f6e2c75696e7432353620636861696e49642c6164647265737320766572696679696e67436f6e747261637429"
}